:020000040800F2
:10000000F8EB0020C1010008E9010008EB0100083D
:10001000ED010008EF010008F1010008F3010008FC
:10002000F3010008F3010008F3010008F3010008E0
:10003000F3010008F3010008DD0A000881880008C8
:1000400077230008192200089122000837220008AF
:1000500065210008232200081F210008292100082B
:100060003D21000847210008512100085F200008B9
:1000700069200008732000087D2000088720000800
:10008000912000089B200008F11F0008192000089B
:10009000FB1F0008052000080F2000085B21000856
:1000A0009B220008B9220008AF220008A522000800
:1000B000C3220008CD220008D7220008972100089B
:1000C0008D210008AB210008A1210008552200085D
:1000D0005F2200083B230008452300084F23000847
:1000E000332100082D220008E7210008FF22000824
:1000F0001D2300081323000809230008A520000879
:10010000792100084B220008E1220008692200083A
:100110005923000863230008EB220008F522000899
:10012000B9200008C3200008CD200008D72000080F
:10013000E12000080B2100081521000841200008DB
:10014000232000082D20000837200008DD210008AA
:10015000EB200008F5200008FF2000086D230008B0
:10016000BF210008B521000805220008FB21000876
:100170000F220008F1210008552000084B2000083C
:10018000832100086F21000827230008312300087D
:10019000732200087D2200088722000841220008FF
:1001A000C9210008D3210008AF200008DFF80CD0D7
:1001B00000F0FEFB00480047D1030108F8EB0020E7
:1001C000DFF83400016841F470010160BFF34F8F24
:1001D000DFF82800016821F040410160BFF36F8F14
:1001E0000748804707480047FEE7FEE7FEE7FEE7CF
:1001F000FEE7FEE7FEE7000088ED00E034EF00E0F8
:1002000095D40008AD01000872B6704762B6704719
:10021000EFF3108072B6704780F31088704730BFDC
:10022000704720BF7047B0FA80F0704790FAA0F096
:10023000B0FA80F0704790FAA0F070472DE9F05FB7
:100240000546002092469B46884606468146402445
:100250001BE0284641464746224600F08AFA5346AC
:100260005A46C01A914110D311461846224600F052
:1002700071FA2D1A67EB01084F4622460120002132
:1002800000F068FA17EB00094E41201EA4F10104AA
:10029000DFDC484631462A464346BDE8F09F40EA47
:1002A00001039B0703D009E008C9121F08C0042AF4
:1002B000FAD203E011F8013B00F8013B521EF9D2DB
:1002C00070472DE9FE4F804681EA0300C00F0C46BF
:1002D000009021F0004123F00045B8EB0200A94155
:1002E00005D24046214690461C460B46024623F066
:1002F0000040104347D0270DC7F30A00C3F30A514B
:100300000290401A019040286BDAC3F3130040F4C6
:10031000801B0098924620B10023D2EB030A63EBC6
:100320000B0B01985946C0F14002504600F012FAFA
:1003300006460D4650465946019A00F02AFA10EB3F
:1003400008006141002487EA115284EAE7731A43E6
:1003500040D0009A62B3019A012A4FEA075215DC95
:10036000001B61EB02014FF0004202EA0752CDE9A7
:100370000042001C41F5801132462B4600F061FA24
:1003800003B0BDE8F08F40462146F9E7001B61EB62
:100390000201001C41F5801300185B412018A2F5F2
:1003A000001747EB030140EAD570B6196D4111E023
:1003B0006D084FEA360645EAC0754FEA0752001B42
:1003C00061EB0201001C41F5801149084FEA300041
:1003D0000019514132462B4603B0BDE8F04F00F002
:1003E00021BA0098012240000023D0EB020263EB07
:1003F000E073009821464FEAE074B8EB000061EB2F
:100400000401E9E783F000435BE781F0004158E72E
:100410002DE9FE4F81EA030404F0004421F000417D
:1004200000944FF0000B23F0004350EA01045ED02B
:1004300052EA03045BD0C3F30A54C1F30A552C44B7
:10044000A4F2F3340194A0FB0254C1F3130141F46C
:100450008011C3F3130343F4801301FB024400FB38
:10046000034E840A970A44EA815447EA8357A4FB5F
:10047000076802958D0A05FB07854FEA932C04FB5C
:100480000C542705029D4FEA065847EA1637B5EB8C
:1004900008056EEB070C870E920E47EA811742EAB9
:1004A0008312A7FB0201B6EB0B0164EB00042B0DDA
:1004B00043EA0C335E1844EB1C50DA465146E7FB26
:1004C0000201C5F313044FEA0B3343EA14534FEA16
:1004D0000432019C43EA0603A4F10C040294009C3C
:1004E000CDE900B400F0ADF903B0BDE8F08F002015
:1004F0000146F9E72DE9F04D81EA030404F0004BD1
:1005000021F0004514464FF0000A23F0004150EA64
:10051000050220D054EA01021DD0C5F30A57024655
:10052000C5F31303C1F31300C1F30A5640F4801559
:1005300043F48013A7EB0608101BD64608F2FD38DB
:1005400073EB050002D308F1010801E092185B414A
:10055000B8F1000F03DA00200146BDE8F08D00205D
:100560004FF48011064684460EE0171B73EB050717
:1005700005D3121B63EB050306434CEA010C490843
:100580004FEA300092185B4150EA0107EDD152EA80
:10059000030012D082EA040083EA0501084305D073
:1005A000101BAB4106D20122002306E000224FF0CF
:1005B000004302E06FF0010253101AEB06004CEB0F
:1005C000085110EB0A0041EB0B01BDE8F04D00F0C3
:1005D00029B930B4044696230800214604D0B62336
:1005E00030BC002200F0F0B820460021F8E70EB53C
:1005F000C10F80EAE0700844CA07002140F233438B
:100600008DE80E000A460B4600F01BF903B000BD52
:100610000EB540F2334102910021CDE900110A46A6
:100620000B4600F00EF903B000BD70B5C1F30A52DD
:1006300001F000450024C1F3130140F2FF3341F4FF
:1006400080119A4201DA002070BD40F233439A4291
:10065000A2F2334203DC524200F08BF800E09040FB
:100660002C43F1D0404270BD00F0004230F0004019
:100670000AD0C10D01F56071C0F3160042EA0151C4
:10068000C208400711437047002001467047000030
:1006900030B5041E71F1000404DB4FF00044404209
:1006A00064EB0101141E73F1000405DB1C464FF0DE
:1006B0000043524263EB04038B4208BF824230BDC9
:1006C00030B5041E71F1000404DB4FF000444042D9
:1006D00064EB0101141E73F1000405DB1C464FF0AE
:1006E0000043524263EB0403994208BF904230BD7D
:1006F00001F0004330B421F0004150EA010206D07D
:100700000A0DA2F56072C1F31301002A02DC30BCAD
:1007100000207047440F44EAC104C100E01830BC17
:1007200000EBC25000F047B830B50B460146002040
:100730002022012409E021FA02F59D4205D303FAA3
:1007400002F5491B04FA02F52844151EA2F1010224
:10075000F1DC30BD202A04DB203A00FA02F100204F
:1007600070479140C2F1200320FA03F319439040EF
:100770007047202A04DB203A21FA02F0002170475A
:1007800021FA02F3D040C2F12002914008431946F9
:100790007047202A06DBCB17203A41FA02F043EAE1
:1007A000E07306E041FA02F3D040C2F1200291402A
:1007B0000843194670470029A8BF7047401C4900EC
:1007C00008BF20F00100704710B4B0FA80FC00FAB6
:1007D0000CF050EA010404BF10BC704749B1CCF1E1
:1007E000200421FA04F411FA0CF118BF012121436D
:1007F0000843A3EB0C01CB1D4FEA00614FEA102028
:1008000042BF002010BC704700EBC35010440029C9
:10081000A4BF10BC7047401C490008BF20F0010075
:1008200010BC704710B5141E73F1000408DA401CA8
:1008300041F1000192185B411A4301D120F00100FF
:1008400010BD2DE9F04D92469B4611B1B1FA81F2EF
:1008500002E0B0FA80F220329046FFF77BFF0446B8
:100860000F4640EA0A0041EA0B0153465A46084344
:1008700013D0114653EA010019D0C8F14002504686
:10088000FFF777FF05460E46504659464246FFF7AA
:1008900061FF084305D0012004E020463946BDE849
:1008A000F08D0020054346EAE0762C4337430A9852
:1008B0006305E40AA0EB08000022FD0A44EA47545D
:1008C0000A3002D500200146E9E701051019694107
:1008D000DDE9084500196941BDE8F04DA2E72DE9C1
:1008E000F04D00231A461B1A8A4103DB0020014603
:1008F000BDE8F08DC1F30A52C1F3130141F4801534
:100900004FF0000BD10702D100186D41521E002795
:10091000044640F2FF11384601EB620A3E4680462B
:10092000024600204FF48011FFF723FFC2197141E6
:10093000BB1846EB0100B4EB030C75EB000C04D3C1
:10094000E41A65EB000517460E46241908F101006C
:100950006D4180463428E3DDF91946EB0600091B9A
:10096000A84103D24FF0FF32134601E000221346A4
:100970001BEB070046EB0A51BDE8F04DFFF752BFF5
:10098000C1F30A52C1F3130140F2FF3341F4801165
:100990009A4202DA00200146704740F233439A42FD
:1009A000A2F2334202DC5242FFF7E3BEFFF7D2BEAF
:1009B000064C074D06E0E06840F0010394E80700AC
:1009C00098471034AC42F6D3FFF7F4FBB06501084A
:1009D000D065010870B58C1810F8015B15F007039D
:1009E00001D110F8013B2A1106D110F8012B03E0C8
:1009F00010F8016B01F8016B5B1EF9D12B0705D4D0
:100A00000023521E0DD401F8013BFAE710F8013B18
:100A1000CB1A921C03E013F8015B01F8015B521E34
:100A2000F9D5A142D8D3002070BD0000EFF30981B1
:100A300041B1F1EE101A40F8041D20ED200A3B49A7
:100A40000A6810607047B0EC200A02C8E1EE101A84
:100A500037490A681060704772B64EF62250CEF2DF
:100A6000000040F2FF01C0F20001017040F2C4102A
:100A7000C2F20000016881F3088840F21E20C2F231
:100A8000000040F21F21C2F200010A78027040F219
:100A9000A825C2F2000540F2AC21C2F200010A68AA
:100AA0002A60106880F30988EFF3148040F0020098
:100AB00080F31488BFF36F8FBDE8F00F0FBCBDE863
:100AC000005006BC62B608471A484FF080510160DA
:100AD000704718484FF080510160704772B6EFF3CD
:100AE000098020E9F00F40F2A825C2F200052E6827
:100AF0003060744607F0BCFC40F21E20C2F20000D9
:100B000040F21F21C2F200010A78027040F2AC21CB
:100B1000C2F200010A682A6044F0F40E1068B0E8DE
:100B2000F00F80F3098862B670470000A802002029
:100B3000AC02002004ED00E02DED088B94B0002005
:100B4000059006900790002402E0642001F0A0FDCB
:100B5000FC4800780028F8D0FBA002F04FFB41F2DF
:100B6000883001F095FD9DED071ADDED060A9DED3B
:100B7000050A0CF0BDF8B7EE001AF7EE000AB7EE62
:100B8000000A0CF069F89FEDF71ADFEDF60A9FED09
:100B9000F50A0CF071F89FEDF38A4FF4FA70F24900
:100BA000086042F2107001F073FD0A20EE490860FF
:100BB00000240AE0ED4890ED000A30EE080AB0EE9D
:100BC000408A022001F064FD641C40F6C410844297
:100BD000F0D39FEDE70AC8EE000ACDED110A9FEDB4
:100BE000E10AB0EE408A4FF4FA70DF49086042F241
:100BF000107001F04DFD0A20DB49086000240AE076
:100C0000DA4890ED000A30EE080AB0EE408A022081
:100C100001F03EFD641C40F6C4108442F0D39FED09
:100C2000D40AC8EE000ACDED0E0A9FEDCE0AB0EE52
:100C3000408A4FF4FA70CC49086042F2107001F01B
:100C400027FD0A20C849086000240AE0C74890ED43
:100C5000010A30EE080AB0EE408A022001F018FDC9
:100C6000641C40F6C4108442F0D39FEDC10AC8EE64
:100C7000000ACDED120A9FEDBB0AB0EE408A4FF498
:100C8000FA70B949086042F2107001F001FD0A20C3
:100C9000B549086000240AE0B44890ED010A30EE3E
:100CA000080AB0EE408A022001F0F2FC641C40F613
:100CB000C4108442F0D39FEDAE0AC8EE000ACDED19
:100CC0000F0A9FEDA80AB0EE408A4FF4FA70A649C9
:100CD000086042F2107001F0DBFC0A20A2490860B3
:100CE00000240AE0A14890ED020A30EE080AB0EEB6
:100CF000408A022001F0CCFC641C40F6C4108442FF
:100D0000F0D39FED9B0AC8EE000ACDED130A9FEDCC
:100D1000950AB0EE408A4FF4FA709349086042F2A7
:100D2000107001F0B5FC0A208F49086000240AE029
:100D30008E4890ED020A30EE080AB0EE408A02209A
:100D400001F0A6FC641C40F6C4108442F0D39FED71
:100D5000880AC8EE000ACDED100A86A002F04EFA0D
:100D60009DED0E0ADDED110AB4EEE00AF1EE10FA87
:100D700009DD9DED0E0AB0EE408A9DED110A8DED64
:100D80000E0A8DED118A9DED0F0ADDED120AB4EE0B
:100D9000E00AF1EE10FA09DD9DED0F0AB0EE408A8F
:100DA0009DED120A8DED0F0A8DED128A9DED100A50
:100DB000DDED130AB4EEE00AF1EE10FA09DD9DED67
:100DC000100AB0EE408A9DED130A8DED100A8DEDEC
:100DD000138A9DED110ADDED0E0A30EE600ADFED9B
:100DE000690A80EE801A8DED0B1A9DED120ADDED79
:100DF0000F0A30EE600ADFED630A80EE801A8DED97
:100E00000C1A9DED130ADDED100A30EE600ADFEDDD
:100E10005D0A80EE801A8DED0D1A9DED110ADDED53
:100E20000E0A30EE200AF6EE000A20EE200ADDED72
:100E30000B0A20EE200A8DED080A9DED120ADDED69
:100E40000F0A30EE200AF6EE000A20EE200ADDED51
:100E50000C0A20EE200A8DED090A9DED130ADDED46
:100E6000100A30EE200AF6EE000A20EE200ADDED30
:100E70000D0A20EE200A8DED0A0A9DED0B0AF7EE11
:100E8000000A30EE600A10EE101A0846FFF7ECFB7D
:100E900041EC1A0BB0EE4A0AF0EE6A0A0DF06CFE55
:100EA000B0EE409AF0EE609A9FED370B53EC102BAA
:100EB00051EC190BFFF704FC3FD39DED0C0AF7EE44
:100EC000000A30EE600A10EE101A0846FFF7CCFB5D
:100ED00041EC1A0BB0EE4A0AF0EE6A0A0DF04CFE35
:100EE000B0EE409AF0EE609A9FED270B53EC102B7A
:100EF00051EC190BFFF7E4FB1FD39DED0D0AF7EE44
:100F0000000A30EE600A10EE101A0846FFF7ACFB3C
:100F100041EC1A0BB0EE4A0AF0EE6A0A0DF02CFE14
:100F2000B0EE409AF0EE609A9FED170B53EC102B49
:100F300051EC190BFFF7C4FB36D215A002F05EF995
:100F400000BFFEE7090000205374617274206163E2
:100F5000632063616C6962726174696F6E2E2E2EFC
:100F60000D0A000000000000580000200C040020C2
:100F700000401C4553656E736F7220496E69740A98
:100F80000D000000CDCC9C41000000000000E03FBF
:100F90004163632063616C6962726174652065728C
:100FA000726F72210D0A0000DDED0D1AB0EE611AAC
:100FB000DDED0C1AF0EE610ADDED0B1AB0EE610A00
:100FC0000BF04AFEDDED0A1AB0EE611ADDED091AEA
:100FD000F0EE610ADDED081AB0EE610A0BF04CFE8E
:100FE0009DED0E0A10EE101A0846FFF73DFB41EC8E
:100FF000190B9DED110A10EE101A0846FFF734FB8D
:1010000041EC1A0B8DED009B53EC1A2B45A002F01E
:10101000F5F89DED0F0A10EE101A0846FFF724FBB5
:1010200041EC190B9DED120A10EE101A0846FFF75D
:101030001BFB41EC1A0B8DED009B53EC1A2B3FA0D0
:1010400002F0DCF89DED100A10EE101A0846FFF7CA
:101050000BFB41EC190B9DED130A10EE101A08461C
:10106000FFF702FB41EC1A0B8DED009B53EC1A2BA2
:1010700038A002F0C3F89DED0D0A10EE101A0846D4
:10108000FFF7F2FA41EC190B9DED0C0A10EE101A65
:101090000846FFF7E9FA41EC1A0B9DED0B0A10EE3A
:1010A000101A0846FFF7E0FA41EC1B0B8DED029B8E
:1010B0008DED00AB53EC1B2B2CA002F09FF89DEDA7
:1010C0000A0A10EE101A0846FFF7CEFA41EC190B87
:1010D0009DED090A10EE101A0846FFF7C5FA41EC1B
:1010E0001A0B9DED080A10EE101A0846FFF7BCFA1D
:1010F00041EC1B0B8DED029B8DED00AB53EC1B2BDC
:101100001EA002F07BF8C8202149086042F210704E
:1011100001F0BEFA01201F49087002E0322001F000
:10112000B7FAFBE778206D61783A25662C78206D58
:10113000696E3A2025660D0A0000000079206D6175
:10114000783A25662C79206D696E3A2025660D0A5D
:10115000000000007A206D61783A25662C7A206DB7
:10116000696E3A2025660D0A000000004761696E2D
:101170003A25662C25662C25660D0A004F66667397
:1011800065743A25662C25662C25660D0A0000003C
:10119000580000205D00002000B58BB00AA8072190
:1011A00000220592CDE90621089005204FF48071B8
:1011B00019220A4BCDE90132CDE9031009200023A1
:1011C000074A08A100900C4806F09EFBBDF82800D5
:1011D00010B90AA002F012F80BB000BDB044002014
:1011E000390B000841636343616C69627261746525
:1011F000205461736B000000E84300200A0D437225
:10120000656174652041636343616C6962726174F6
:1012100065205461736B2E2E2E0A0D0010B512A29C
:101220000021164801F0F8F9044624B914A001F091
:10123000E5FF00BFFEE717A200211C4801F0ECF912
:10124000044624B90EA001F0D9FF00BFFEE718A2A2
:1012500000211D4801F0E0F9044624B908A001F07E
:10126000CDFF00BFFEE710BD53656D5F5365725043
:1012700072696E745570646174650000A803002083
:101280004170704F626A4372656174652065727265
:101290006F72210053656D5F506F73436F6E747290
:1012A0006F6C55706461746500000000800300205D
:1012B00053656D5F417474436F6E74726F6C5570DB
:1012C00064617465000000005803002010B51148E7
:1012D000007848B904F020F802E00A2001F0D8F9BB
:1012E0000C4800780028F8D00CF090F80BF03EF88D
:1012F00003F034FF0AF0B6FC00F044FD0648007825
:1013000008B9FFF749FF03F0D7FD0AF063FD05F0C8
:10131000E5FA10BD5C0000205D00002008B500F07B
:1013200057F802F0D5F800F0F3FD01F0BDFF684674
:1013300006F068FA45F2072001F04CFC4AF20F4033
:1013400001F0E8F901F024FB4FF4E13001F0A0FED8
:1013500002F014F800F076FD002001F083F808A0F8
:1013600001F04CFFFFF75AFF10A001F047FFFFF715
:10137000ADFF03E04FF4FA7001F08AF9FAE70000DC
:101380004372656174696E67204170706C69636156
:1013900074696F6E204B65726E656C204F626A6572
:1013A0006374732E2E2E0A0D0000000043726561D7
:1013B00074696E67204170706C69636174696F6EE7
:1013C000205461736B732E2E2E0A0D00704700009F
:1013D00010B5002400BF00BFFEF71AFF044600BF8F
:1013E00000BF0E480E4908600E480F4908600F48BC
:1013F0000F4908600F4810490860104810490860FC
:1014000010481149086011481149086000BF00BF29
:101410002046FEF701FF00BF00BF10BD57140008B3
:10142000D001002059140008D40100205B140008EA
:10143000D8010020CD130008DC010020551400085D
:10144000E00100205D140008E40100205F140008A2
:10145000E80100207047704770477047704710B52B
:1014600002F024FD10BD00002DED0E8BB8B0002061
:1014700037902E902F903090FE4A07CA19AB07C3C1
:10148000FC4A0C3207CA16AB07C3FA4A183207CA1D
:1014900013AB07C3002500200D900E900F900A900B
:1014A0000B900C900790089009900490059006907E
:1014B000019002900390002680463220EE49086099
:1014C0000BF09AF9C820EC49086031A934A80BF058
:1014D0006DF89DED310A8DED220A9DED320A8DEDFC
:1014E000230A9DED330A8DED240A03F00DF83790A1
:1014F000FEE331A934A80BF059F837A804F0B4F88A
:10150000B0EE408ADD4934A80CF07DFEDC4931A8FC
:101510000CF079FED94890ED020ADDED300A30EE8C
:10152000200AFEEE000A20EE200A20EE080A8DEDC9
:10153000280A90ED010ADDED2F0A30EE200AFEEEBA
:10154000000A20EE200A20EE080A8DED290A90ED0F
:10155000000ADDED2E0A30EE200AFEEE000A20EE33
:10156000200A20EE080A8DED2A0A28AA22A922A81C
:1015700003F072FF28AA19A919A803F06DFF1FA98B
:1015800031A80CF040FE9DED1F0ADDED220A70EE41
:10159000600A9DED220A9FEDBB1A00EE810A8DEDD7
:1015A000220A9DED200ADDED230A70EE600A9DED12
:1015B000230A9FEDB41A00EE810A8DED230A9DEDFA
:1015C000210ADDED240A70EE600A9DED240A9FEDEC
:1015D000AD1A00EE810A8DED240ADDED230A60EEDE
:1015E000A00A9DED241ADDED241A41EE210AB0EE89
:1015F000600A0DF036FCB0EE40EADDED220AB0EEF6
:10160000600AF0EE4E0A0DF083F88DED2C0A9DED88
:10161000241AB1EE411AF0EE410A9DED231AB1EE03
:10162000411AB0EE410A0DF073F88DED2D0A96487F
:10163000D0ED020AB0EE600A0DF00EFBB0EE40BA3B
:101640009148D0ED020AB0EE600A0DF0EDF9F0EE2F
:1016500040AA8D48D0ED010AB0EE600A0DF0FCFA08
:10166000F0EE40BA8848D0ED010AB0EE600A0DF005
:10167000DBF9F0EE40CA9DED190A20EE2C0ADDEDF3
:101680001A0A60EE8B0A00EEAB0ADDED1B0A60EE73
:10169000AB0A00EEAA0AB0EE40DA9DED1A0A20EE7F
:1016A0002A0ADDED1B0AF0EE40DA40EECBDAF0EE6E
:1016B0004D0AB0EE6D0A0DF02BF8B1EE400A8DED3B
:1016C0002B0A9DED2B0A704880ED000A9DED2C0A37
:1016D00080ED010A9DED2D0A80ED020A2EA934A8A5
:1016E0000CF091FD684A31A90DA803F0B5FEBFEEDC
:1016F000000A0DA80CF094FDB6F57A7F0ED2B6F56F
:10170000FA7F04D30DAA01A901A80CF056FD9FEDA4
:101710005F0A0DA80CF084FD761C45E0B6F57A7FD3
:101720000ED19FED5B0A01A80CF07AFD9FED570AE0
:101730000DA80CF075FD761C01205649087033E0A9
:1017400055490DA80CF05FFD9DED0A1AF0EE410A17
:101750009DED0D1AB0EE410AF0EE481A9FED4F1ABA
:1017600003F03CFD8DED0A0A9DED0B1AF0EE410AE7
:101770009DED0E1AB0EE410AF0EE481A9FED471AA1
:1017800003F02CFD8DED0B0A9DED0C1AF0EE410AD5
:101790009DED0F1AB0EE410AF0EE481A9FED3F1A88
:1017A00003F01CFD8DED0C0A3A480078012860D149
:1017B000DDED0A0A9DED011A30EEC11ADDED070AD2
:1017C00041EE080AB0EE600AB2EE041AFAEE040A1C
:1017D00003F0B2FB8DED070ADDED0B0A9DED021A59
:1017E00030EEC11ADDED080A41EE080AB0EE600ADB
:1017F000B2EE041AFAEE040A03F09EFB8DED080A1D
:10180000DDED0C0A9DED031A30EEC11ADDED090A7B
:1018100041EE080AB0EE600AB2EE041AFAEE040ACB
:1018200003F08AFB8DED090ADDED040A9DED071A30
:1018300041EE080A9DED0A1ADDED011A31EE611A3A
:10184000F6EE001A21EE211A21EE081A41EE080ADE
:10185000B0EE600AB2EE041AFAEE040A03F06CFB72
:101860008DED040ADDED050A9DED081A41EE080A2A
:1018700016E0E9E0AC05010858000020180400203B
:101880000C04002052499D39000400200000000093
:101890006F12033B0900002030040020D2537B4329
:1018A0009DED0B1ADDED021A31EE611AF6EE001A0B
:1018B00021EE211A21EE081A41EE080AB0EE600A64
:1018C000B2EE041AFAEE040A03F036FB8DED050AB7
:1018D000DDED060A9DED091A41EE080A9DED0C1A90
:1018E000DDED031A31EE611AF6EE001A21EE211A2F
:1018F00021EE081A41EE080AB0EE600AB2EE041AB0
:10190000FAEE040A03F018FB8DED060A681C142198
:1019100090FBF1F201FB12059DED0A0AFE4800EB77
:10192000850080ED000A9DED0B0AFC4800EB850068
:1019300080ED000A9DED0C0AF94800EB850080ED72
:10194000000AF848007801287ED12C46002799E04B
:10195000F14800EB840090ED000AF0EE408A9DED26
:10196000040AF6EE000A68EE200A60EE880A00EE2D
:10197000E80AB0EE40CA9DED070A08EE680AF0EEEC
:10198000409A9DED010AB0EE40AAB0EE4C0A08EE76
:10199000690AF6EE000A68EE200A60EE880A00EE98
:1019A000CA0A8DED040AB0EE690A08EE0A0A8DED46
:1019B000070ADA4800EB840090ED000AF0EE408A56
:1019C0009DED050AF6EE000A68EE200A60EE880A30
:1019D00000EEE80AB0EE40CA9DED080A08EE680A7B
:1019E000F0EE409A9DED020AB0EE40AAB0EE4C0A2D
:1019F00008EE690AF6EE000A68EE200A60EE880A30
:101A000000EECA0A8DED050AB0EE690A08EE0A0A70
:101A10008DED080AC24800EB840090ED000AF0EE5C
:101A2000408A9DED060AF6EE000A68EE200A60EE96
:101A3000880A00EEE80AB0EE40CA9DED090A08EEF9
:101A4000680AF0EE409A00E064E19DED030AB0EE12
:101A500040AAB0EE4C0A08EE690AF6EE000A68EEFB
:101A6000200A60EE880A00EECA0A8DED060AB0EE82
:101A7000690A08EE0A0A8DED090A641E002C00DAD4
:101A800013247F1C142FFFF663AFA74890ED000AC4
:101A9000DDED040A30EE600AB0EE409A9DED040AD6
:101AA000DFEDA20A00EE890A8DED040A9DED070A1A
:101AB000DFED9F0A00EE890A8DED070A9DED010A10
:101AC000DFED9C0A00EE890A8DED010A90ED010A16
:101AD000DDED050A30EE600AB0EE409A9DED050A94
:101AE000DFED920A00EE890A8DED050A9DED080AE8
:101AF000DFED8F0A00EE890A8DED080A9DED020ADE
:101B0000DFED8C0A00EE890A8DED020A90ED020AE3
:101B1000DDED060A30EE600AB0EE409A9DED060A51
:101B2000DFED820A00EE890A8DED060A9DED090AB5
:101B3000DFED7F0A00EE890A8DED090A9DED030AAB
:101B4000DFED7C0A00EE890A8DED030A002769E0CB
:101B5000714800EB840090ED000ADDED010A30EEE3
:101B6000600AF0EE408A9DED040ADDED070A08EEFA
:101B7000200AF6EE000A68EE200A60EE880A00EEFF
:101B8000A80A8DED040A9DED070A08EE280A8DEDDE
:101B9000070A624800EB840090ED000ADDED020ABE
:101BA00030EE600AF0EE408A9DED050ADDED080A90
:101BB00008EE200AF6EE000A68EE200A60EE880AB7
:101BC00000EEA80A8DED050A9DED080A08EE280A28
:101BD0008DED080A524800EB840090ED000ADDED1F
:101BE000030A30EE600AF0EE408A9DED060ADDED54
:101BF000090A08EE200AF6EE000A68EE200A60EEF6
:101C0000880A00EEA80A8DED060A9DED090A08EE85
:101C1000280A8DED090A601C142190FBF1F201FBEA
:101C200012047F1C142F93DB434890ED000AB1EEA1
:101C3000400A8DED250A90ED010AB1EE400A8DEDC6
:101C4000260A90ED020AB1EE400A8DED270A25AA78
:101C500016A910A803F000FC25AA13A91CA803F0DC
:101C6000FBFB9DED100ADDED190A70EE600A9DED9B
:101C7000190A9FED321A00EE810A8DED190A9DEDC9
:101C8000110ADDED1A0A70EE600A9DED1A0A9FED49
:101C90002B1A00EE810A8DED1A0A9DED120ADDED78
:101CA0001B0A70EE600A9DED1B0A9FED241A00EEE0
:101CB000810A8DED1B0A9DED1C0ADDED220A70EEF6
:101CC000600A9DED220A9FED1E1A00EE810A8DED3D
:101CD000220A9DED1D0ADDED230A70EE600A9DEDDE
:101CE000230A9FED171A00EE810A8DED230A00E00A
:101CF00040E09DED1E0ADDED240A70EE600A9DEDC8
:101D0000240A9FED0F1A00EE810A8DED240A0020AF
:101D1000044908700B4917E0B02700205028002024
:101D2000F02800201D000020540400209A99193E3C
:101D300052B81E3F0AD723BC6C0400200AD7233CAC
:101D400000000000240400200DA80CF05CFA0A49F1
:101D500007A80CF058FA094904A80CF054FAB8F195
:101D6000000F05D0064800F068FC4FF0000801E0C5
:101D700008F10108FFF7BDBB3C0400204804002027
:101D80008003002000B58BB00AA80721002205922D
:101D9000CDE90621089010464FF4007133220A4B1A
:101DA000CDE90132CDE9031007200023074A08A13D
:101DB00000900B4805F0A8FDBDF8280010B909A057
:101DC00001F01CFA0BB000BDB01F00206914000820
:101DD0004174746974756465205461736B0000000C
:101DE000E81E00200A0D4372656174652041747419
:101DF0006974756465205461736B2E2E2E0A0D0074
:101E00001FB568460AF072F8019804B010BD0000D2
:101E100010B5012003F0CAFA40B1062000F0B0F876
:101E2000012003F0BDFA024800F007FC10BD0000DD
:101E30002868002010B503F04BFC10BD10B503F06E
:101E40004FFC10BD10B520A1224800F0ABFB22A230
:101E50000021244800F0E0FB23A20021254800F0E7
:101E6000DBFB2549482000F0B5FA2449492000F061
:101E7000B1FA482000F092F8492000F08FF820488D
:101E800001F0EEFF1F481E49C969086003201C4984
:101E90004870002088700120C8701B4848601B48AB
:101EA0008860012008730020086148610A20886169
:101EB000084601F06BFE124801F002FF08B901204C
:101EC00010BD0020FCE7000049324333204C6F6313
:101ED0006B0000008C650020493243332054785752
:101EE00061697400BC650020493243332052785741
:101EF00061697400E46500203D1E0008351E00087D
:101F0000EC020020801A06006C6500207C65002031
:101F10001CB500F035FAFFF773FF1649B0FBF1F07E
:101F20001549086008460068086000F0D5FF00F019
:101F30006BFA012000F0F8FE4FF401400090012000
:101F40008DF8040000208DF806008DF807000320AE
:101F50008DF805006946094803F009FB4FF400417C
:101F6000064803F07CFB4FF48071044803F077FBD4
:101F70001CBD000040420F0084000020000402400D
:101F800010B504465B2C04D204F11001C8B202F073
:101F900055F810BD10B5FEF737F910BD10B5044661
:101FA0005B2C04D204F11001C8B202F0EDF810BDB0
:101FB00070B50446002600BF00BFFEF729F90646AB
:101FC00000BF00BF04F0AEFD00BF00BF3046FEF70B
:101FD00023F900BF00BF5B2C04D2044850F8245002
:101FE00005B1A84704F0B4FD70BD000008630020EF
:101FF00010B51220FFF7DCFF10BD10B51420FFF75D
:10200000D7FF10BD10B51520FFF7D2FF10BD10B5DA
:102010001620FFF7CDFF10BD10B51320FFF7C8FF46
:1020200010BD10B54020FFF7C3FF10BD10B5412013
:10203000FFF7BEFF10BD10B54220FFF7B9FF10BD7E
:1020400010B53F20FFF7B4FF10BD10B54F20FFF7CC
:10205000AFFF10BD10B54E20FFF7AAFF10BD10B5A1
:102060000B20FFF7A5FF10BD10B50C20FFF7A0FF58
:1020700010BD10B50D20FFF79BFF10BD10B50E2051
:10208000FFF796FF10BD10B50F20FFF791FF10BDB1
:1020900010B51020FFF78CFF10BD10B51120FFF711
:1020A00087FF10BD10B52F20FFF782FF10BD10B5C0
:1020B0005A20FFF77DFF10BD10B53820FFF778FFDD
:1020C00010BD10B53920FFF773FF10BD10B53A20D1
:1020D000FFF76EFF10BD10B53B20FFF769FF10BD85
:1020E00010B53C20FFF764FF10BD10B54420FFF78A
:1020F0005FFF10BD10B54520FFF75AFF10BD10B5AA
:102100004620FFF755FF10BD704710B53D20FFF783
:102110004FFF10BD10B53E20FFF74AFF10BD10B5B0
:102120000620FFF745FF10BD10B50720FFF740FF61
:1021300010BD10B52820FFF73BFF10BD10B50820DB
:10214000FFF736FF10BD10B50920FFF731FF10BDB6
:1021500010B50A20FFF72CFF10BD10B51720FFF7B0
:1021600027FF10BD10B50420FFF722FF10BD10B5EA
:102170005120FFF71DFF10BD10B53020FFF718FFED
:1021800010BD10B55020FFF713FF10BD10B5202073
:10219000FFF70EFF10BD10B51F20FFF709FF10BDA0
:1021A00010B52220FFF704FF10BD10B52120FFF766
:1021B000FFFE10BD10B54920FFF7FAFE10BD10B5A7
:1021C0004820FFF7F5FE10BD10B55820FFF7F0FED0
:1021D00010BD10B55920FFF7EBFE10BD10B5432020
:1021E000FFF7E6FE10BD10B52A20FFF7E1FE10BD97
:1021F00010B54D20FFF7DCFE10BD10B54B20FFF7EA
:10220000D7FE10BD10B54A20FFF7D2FE10BD10B5A5
:102210004C20FFF7CDFE10BD10B50120FFF7C8FE22
:1022200010BD10B50520FFF7C3FE10BD10B5292065
:10223000FFF7BEFE10BD10B50320FFF7B9FE10BDBD
:1022400010B55720FFF7B4FE10BD10B53120FFF7D1
:10225000AFFE10BD10B52320FFF7AAFE10BD10B5CC
:102260002420FFF7A5FE10BD10B53320FFF7A0FE18
:1022700010BD10B55420FFF79BFE10BD10B55520C2
:10228000FFF796FE10BD10B55620FFF791FE10BD6A
:1022900010B50220FFF78CFE10BD10B51820FFF717
:1022A00087FE10BD10B51B20FFF782FE10BD10B5D4
:1022B0001A20FFF77DFE10BD10B51920FFF778FE3C
:1022C00010BD10B51C20FFF773FE10BD10B51D200A
:1022D000FFF76EFE10BD10B51E20FFF769FE10BDA2
:1022E00010B53220FFF764FE10BD10B53620FFF7A1
:1022F0005FFE10BD10B53720FFF75AFE10BD10B5B8
:102300002B20FFF755FE10BD10B52E20FFF750FE15
:1023100010BD10B52D20FFF74BFE10BD10B52C20C1
:10232000FFF746FE10BD10B55220FFF741FE10BD6D
:1023300010B55320FFF73CFE10BD10B52520FFF768
:1023400037FE10BD10B52620FFF732FE10BD10B5C8
:102350002720FFF72DFE10BD10B53420FFF728FE13
:1023600010BD10B53520FFF723FE10BD10B5472076
:10237000FFF71EFE10BD10B50020FFF719FE10BDBF
:1023800010B5002404E00449204600F023F8641C42
:102390005B2CF8D310BD00000921000870B504467D
:1023A0000D4600265B2C13D200BF00BFFDF730FFA7
:1023B000064600BF00BF04F11001C8B2294601F073
:1023C00089FF00BF00BF3046FDF726FF00BF00BFFA
:1023D00070BD000070B504460D4600265B2C10D27F
:1023E00000BF00BFFDF714FF064600BF00BF054851
:1023F00040F8245000BF00BF3046FDF70DFF00BF7E
:1024000000BF70BD086300201CB5022000F08CFCEA
:102410004FF40050009001208DF8040000208DF84A
:1024200006008DF8070002208DF8050069460C486B
:1024300003F09DF8022000F077FC4FF480400090FC
:1024400001208DF8040000208DF806008DF80700AB
:1024500002208DF805006946014803F088F81CBD8C
:102460000008024010B5044624B1012C0DD0022C06
:1024700017D110E04FF400510B4803F0F2F84FF47D
:102480008041094803F0EDF80CE04FF40051064894
:1024900003F0E7F806E04FF48041034803F0E1F869
:1024A00000E000BF00BF10BD0008024010B50446A8
:1024B00024B1012C0DD0022C17D110E04FF40051A3
:1024C0000B4803F0CCF84FF48041094803F0C7F8FB
:1024D0000CE04FF40051064803F0C1F806E04FF459
:1024E0008041034803F0BBF800E000BF00BF10BD0F
:1024F0000008024070B5054625B1012D27D0022DF8
:102500004BD137E0264803F0A6F8044684F4005483
:1025100004F40051224803F0A4F84FF4005020EADC
:1025200004011F4803F09BF81D4803F094F804468B
:1025300084F4804404F48041194803F092F84FF485
:10254000804020EA0401164803F089F826E0144888
:1025500003F081F8044684F4005404F40051104858
:1025600003F07FF84FF4005020EA04010C4803F018
:1025700076F813E00A4803F06EF8044684F48044C9
:1025800004F48041064803F06CF84FF4804020EAE0
:102590000401034803F063F800E000BF00BF70BD12
:1025A0000008024038B504460D466A4629462046D2
:1025B00004F03CFBBDF8000008B1002038BD01204C
:1025C000FCE738B504466A460021204604F09CFC2E
:1025D000BDF8000008B1002038BD0120FCE7000074
:1025E0007CB505460C464FF47A706043094909688A
:1025F000B0FBF1F601A800231A46314600902846A8
:1026000004F074FBBDF8040008B100207CBD01207B
:10261000FCE7000040590108F8B506460C4615468F
:102620006B4622462946304604F082FEBDF8000083
:1026300008B10020F8BD0120FCE738B504466A4621
:102640000021204604F0C2FFBDF8000008B10020C0
:1026500038BD0120FCE700007CB505460C464FF470
:102660007A70604309490968B0FBF1F601A80023BC
:102670001A4631460090284604F0B8FEBDF8040022
:1026800008B100207CBD0120FCE700004059010892
:10269000FEB5044642F21070844200D90446B4F5F7
:1026A0007A7F09D34FF47A70B4FBF0F100FB114547
:1026B000B4FBF0F086B201E0A5B2002602A800212A
:1026C0002B463246CDE90010084605F0B3FFFEBDAB
:1026D0001CB5622000F028FB012000F025FB4FF420
:1026E0000070009002208DF8040000208DF8060094
:1026F00002208DF8050001208DF807000222092133
:10270000034802F07CFF6946014802F030FF1CBD1F
:102710000004024010B50446FFF7DAFF204600F03F
:1027200015F802A000F06AFD10BD000050574D32B0
:1027300020496E697469616C697A65207375636399
:1027400065656465642E2E2E200D0A0010B588B0D4
:1027500004464CF6135006900320ADF814000020F8
:10276000ADF81C00ADF8160005A90F480BF000FCF1
:102770006020ADF800000120ADF8020002940020B6
:10278000ADF80C00694608480BF074FB08210648B8
:102790000BF0ACFB012104480BF0F4F901210248D5
:1027A0000BF0FFF908B010BD0008004010B504465A
:1027B000214602480BF0ADFB10BD000000080040B0
:1027C0001CB5612000F0B0FA012000F0ADFA332012
:1027D000009002208DF8040000208DF806000220F1
:1027E0008DF8050001208DF80700022204210B4816
:1027F00002F005FF02220521084802F000FF022234
:102800000021064802F0FBFE02220121034802F0EB
:10281000F6FE6946014802F0AAFE1CBD0004024013
:1028200070B5044632214B48FFF716FF05464A486B
:10283000007801280FD14948006800EE100AB8EE70
:10284000400ADFED470A20EE200A84ED000A00204E
:102850004149087003E09FED430A84ED000A4248B5
:10286000007801280FD14148006800EE100AB8EE48
:10287000400ADFED3B0A20EE200A84ED010A002029
:102880003949087003E09FED370A84ED010A3848A2
:10289000007801280FD13748006800EE100AB8EE22
:1028A000400ADFED2F0A20EE200A84ED020A002004
:1028B0002F49087003E09FED2B0A84ED020A2E4891
:1028C000007801280FD12D48006800EE100AB8EEFC
:1028D000400ADFED230A20EE200A84ED030A0020DF
:1028E0002549087003E09FED1F0A84ED030A244880
:1028F000007801280FD12348006800EE100AB8EED6
:10290000400ADFED170A20EE200A84ED040A0020B9
:102910001B49087003E09FED130A84ED040A1A486E
:10292000007801280FD11948006800EE100AB8EEAF
:10293000400ADFED0B0A20EE200A84ED050A002094
:102940001149087003E09FED070A84ED050A284647
:1029500070BD00000C6600201C010020A0000020BB
:1029600073C81F35000000001D010020B8000020C2
:102970001E010020D00000201F010020E8000020E0
:10298000200100200001002021010020180100206A
:1029900000B589B081A200218548FFF73DFE0121E5
:1029A000084609F083FA0121084609F05FFA01217F
:1029B000022009F07BFA01A80BF01CFB4FF6FF7018
:1029C00002900020ADF80600ADF80C006320ADF8D1
:1029D000040001A977480BF0CBFA4FF6FF70029084
:1029E0003120ADF8040001A980070BF0C1FA4FF6C1
:1029F000FF7002906320ADF8040001A96E480BF04F
:102A0000B7FA0121084609F021FA0121022009F054
:102A10001DFA0121042009F019FA02208DF8200086
:102A20008DF8210000208DF8220002208DF823006F
:102A30004FF40440079007A9604802F098FD4FF456
:102A4000E070079007A95E4802F091FD082007900A
:102A500007A95C4802F08BFD01220A21574802F0C9
:102A6000CEFD03220621564802F0C9FD03220721AC
:102A7000534802F0C4FD03220821514802F0BFFD73
:102A8000012203214F4802F0BAFD01220F214B48D9
:102A900002F0B5FD0A20ADF812000120ADF81400D7
:102AA0000020ADF816000520ADF818000820ADF89C
:102AB000100004A93F480BF09AF80020ADF8100070
:102AC00004A93D480BF093F80420ADF8100004A9C8
:102AD00039480BF08CF80820ADF8100004A93648EE
:102AE0000BF085F80020ADF8100004A94FF08040ED
:102AF0000BF07DF80420ADF8100004A900070BF0DE
:102B000076F831491B20FFF765FC07211B20FFF7F2
:102B100045FC1B20FFF742FA2C491C20FFF75AFC0A
:102B200007211C20FFF73AFC1C20FFF737FA284941
:102B30002E20FFF74FFC07212E20FFF72FFC2E2021
:102B4000FFF72CFA012208211A480BF087F801221E
:102B5000022119480BF082F80122042116480BF0DB
:102B60007DF80122082114480BF078F80122022197
:102B700048070BF073F80122042108070BF06EF8E8
:102B800001210C480BF00DF8012188070BF009F822
:102B9000012109480BF005F809B000BD50574D5F01
:102BA000494E5F5570646174655F53656D00000048
:102BB0000C660020000001400004014000000240BB
:102BC000000802400004024021D600080DD700088A
:102BD000E1D8000810B50446FFF7F2FD204600F0EA
:102BE00015F802A000F00AFB10BD000050574D2060
:102BF000496E697469616C697A6520737563636590
:102C0000656465642E2E2E200D0A000010B588B074
:102C100004464CF6135006900320ADF81400002033
:102C2000ADF81C00ADF8160005A91B480BF0A0F983
:102C30006020ADF800000120ADF8020002940020F1
:102C4000ADF80C00694614480BF012F80821124840
:102C50000BF04CF8694610480BF052F808210E486A
:102C60000BF0A0F869460C480BF0AAF808210A48B6
:102C70000BF0F6F8694608480BF0FCF80821064806
:102C80000BF034F9012104480AF07CFF01210248CD
:102C90000AF087FF08B010BD000400402DE9F041A4
:102CA00004460F4615461E464AF20F40844201D99B
:102CB000044604E045F20720844200D204464AF26A
:102CC0000F40874201D9074604E045F207208742BA
:102CD00000D207464AF20F40854201D9054604E07A
:102CE00045F20720854200D205464AF20F4086424F
:102CF00001D9064604E045F20720864200D2064686
:102D0000214608480BF0FFF8394606480BF0FDF85D
:102D1000294604480BF0FBF8314602480BF0F9F85D
:102D2000BDE8F08100040040672873D034DC1A2825
:102D300065D00FDC6DD2DFE800F04F505152535494
:102D40005556575859CB5ACBCBCBCBCB5BCB5C5DD5
:102D50005E5FCB60272862D00BDCA0F11B010C2941
:102D6000E8D2DFE801F04D4B4E4FB558B5B5B55937
:102D70005A5B63286ED008DC40285CD0602866D09F
:102D8000612865D0622844D163E0642863D0652857
:102D900062D06628F7D160E0A0F168013329C9D27A
:102DA000DFE801F05D96965E96965F6096616263DD
:102DB00064656667966869966A6B6C6D797A9696B3
:102DC0007B7C96967D7E7F808182839684858696A5
:102DD0008788899696968A0000BF00BF00BF00BF13
:102DE00000BF00BF00BF00BF00BF00BF00BF00BFEB
:102DF00000BF00BF00BF00BF00BF00BF00BF00BFDB
:102E000000BF00BF33490968012282401143314AA3
:102E100011605DE022E000BF00BF00BF00BF2D4990
:102E2000091D0968A0F12002012393401943294A92
:102E3000121D11604CE0274908310968A0F14002D9
:102E4000012393401943234A0832116040E000BF38
:102E500000BF00BF00BF00BF00BF00BF00BF00BF7A
:102E600000BF00BF00BF00BF00BF00BF00BF00BF6A
:102E700000BF00BF00BF00BF00BF00BF00BF1549BB
:102E800010310968A0F16002012393401943114AEF
:102E9000103211601CE000BF00BF00BF00BF00BFC8
:102EA00000BF00BF00BF00BF00BF00BF00BF00BF2A
:102EB00000BF00BF00BF00BF064914310968A0F180
:102EC0008002012393401943024A1432116000BF6B
:102ED00000BF70473038024000B587B030A20021F3
:102EE0003248FFF799FB2EA200213148FFF794FBEF
:102EF00030A13348FFF756FB324809F0B3FA8C2073
:102F0000FFF712FF0020FFF70FFFE02000900020E6
:102F10008DF8060001208DF8070002208DF80400CE
:102F20008DF8050005221146274802F068FB0522AE
:102F30000621254802F063FB05220721224802F002
:102F40005EFB6946204802F012FB0020ADF8080045
:102F50004FF48270ADF80A000020ADF80C0002209A
:102F6000ADF80E000120ADF810004002ADF81200DF
:102F70001020ADF814000020ADF816000720ADF8C1
:102F8000180002A90F4809F0D3FA00210D4809F0F2
:102F900051FA01210B4809F059FA07B000BD0000B1
:102FA00053504931205761697400000014650020B6
:102FB000EC64002053504931204C6F636B000000DB
:102FC0003C650020003001400000024070B505461D
:102FD000002406E0641CB4F57A7F02D909F016FAE1
:102FE00005E002210F4809F095FA0028F2D000BF51
:102FF000002429460B4809F099FA06E0641CB4F550
:103000007A7F02D909F0EEF905E00121054809F0BF
:1030100081FA0028F2D000BF024809F084FAC0B259
:1030200070BD00000030014070B5202114480BF045
:103030001EF80546012D0CD111480BF0B5F81149C9
:10304000087040F225510E480AF0E6FF0E48FFF7DF
:10305000F4FA40210A480BF00AF80446012C0DD17D
:10306000002240F2266106480BF00EF840F226617D
:1030700003480AF0D1FF0548FFF7DFFA70BD0000F2
:1030800000100140880000209C640020746400202F
:1030900030B589B0044648A200214B48FFF7BCFA7E
:1030A0004AA200214D48FFF7B7FA4DA201214F482F
:1030B000FFF7B2FA03940020ADF81000ADF812004B
:1030C000ADF81400ADF818000C20ADF81600002083
:1030D000ADF80400ADF806004FF40070ADF808003C
:1030E0000020ADF80A008420FFF71EFE0120FFF744
:1030F0001BFE072206213E4802F081FA07221146F4
:103100003B4802F07CFA4020079003208DF8210014
:1031100000208DF822008DF8230002208DF8200079
:1031200007A9334802F023FA8020079002208DF887
:10313000200007A92E4802F01AFA03A92D480AF028
:10314000C9FF01A92B480AF076FF012129480AF09E
:1031500082FF29492520FFF73DF90A212520FFF7A5
:103160001DF92520FEF71AFF002240F226612148B2
:103170000AF08AFF002240F225511E480AF084FF1F
:1031800040211C480AF073FF054611E040F2266119
:1031900018480AF041FF40F2266116480AF033FF52
:1031A0000A20FFF775FA402112480AF060FF054631
:1031B000012DEBD009B030BD53657269616C2054AC
:1031C0007820576169740000746400205365726947
:1031D000616C205278205761697400009C64002063
:1031E00053657269616C204C6F636B00C46400208E
:1031F0000004024000100140293000080FB400B55F
:10320000A3B025A80190812102A8019B249A0BF06C
:103210003FF80020019002A800F020F823B05DF8EC
:1032200014FB000010B50446012240F22661094853
:103230000AF02AFF214607480AF0BBFF0021064892
:10324000FFF70AFA002240F2266102480AF01CFF4A
:1032500010BD0000001001407464002070B50446E9
:1032600004B970BD00210F48FFF7F6F90546012D9E
:1032700000D0F6E70EE020780A2807D10D20FFF7EE
:10328000D1FF0A20FFF7CEFF641C03E014F8010B06
:10329000FFF7C8FF20780028EDD10248FFF7CDF9ED
:1032A00000BFDEE7C464002070B5FEF7A9FD044648
:1032B00003480068B4FBF0F5284605F0FDFA70BD40
:1032C0004059010810B5202126480AF0D0FE0128F7
:1032D00033D124480AF068FFC4B2242C0ED1012057
:1032E0002149087000202149086021480968445498
:1032F0001E480068401C1D49086019E01A48007803
:10330000012815D11A48194909684454174800681A
:10331000401C1649086008460068152808D12A2C68
:1033200003D11448FFF789F902E000200E49087024
:1033300040F225510B480AF06FFE402109480AF07F
:1033400096FE01280DD1002240F2266105480AF0C0
:103350009BFE40F2266103480AF05EFE0648FFF736
:103360006CF910BD004400402C0100202801002011
:10337000AC6600205C6600203466002000B589B091
:1033800042A200214548FFF747F945A200214848DD
:10339000FFF742F947A201214948FFF73DF94FF4F1
:1033A000E13003900020ADF81000ADF81200ADF848
:1033B0001400ADF818000C20ADF816000020ADF890
:1033C0000400ADF806004FF40070ADF808000020CE
:1033D000ADF80A007120FFF7A7FC0020FFF7A4FC5E
:1033E00007220221374802F00AF907220321354853
:1033F00002F005F90420079003208DF82100002039
:103400008DF822008DF8230002208DF8200007A9F6
:103410002C4802F0ACF80820079002208DF820001C
:1034200007A9284802F0A3F827492620FEF7D2FF73
:1034300008212620FEF7B2FF2620FEF7A1FD03A9F2
:1034400022480AF047FE01A920480AF0F4FD0022B4
:1034500040F226611D480AF017FE002240F2255175
:103460001A480AF011FE40F2266118480AF0D4FD0D
:1034700040F2255115480AF0CFFD2620FEF78EFDBB
:10348000012112480AF0E7FD09B000BD55736172D1
:10349000743220547820576169740000346600202B
:1034A000557361727432205278205761697400003C
:1034B0005C660020557361727432204C6F636B0040
:1034C0008466002000000240C5320008004400402D
:1034D00070B52DED0E8B4FF000706C4908600846FA
:1034E000006840006A490860084600686749096842
:1034F0000844684908600846006864490968084447
:1035000065490860614890ED000AB8EE400AF7EEA0
:10351000000A80EE801A614880ED001A5B4800685E
:10352000800000EE100AB8EE400A5D4880ED000A07
:10353000564890ED000AB8EE400AF0EE000A20EE80
:10354000200ADFED580A80EE801A574880ED001AF5
:10355000534890ED000ADFED550A80EE201A5448DA
:1035600080ED001A012400253EE048480068FDF780
:103570004FF841EC1B0B00EE104AB8EEC00AF7EE14
:10358000000A80EE801A11EE106A3046FDF76CF8E2
:1035900041EC1E0BB0EE4E0AF0EE6E0A0AF04CFF44
:1035A000B0EE40DAF0EE60DA9FED420B53EC102BF8
:1035B00051EC1D0BFCF79EFF41EC1C0B53EC1B2B3D
:1035C000FCF726FF41EC1A0B9FED3C0B53EC102B44
:1035D000FCF777FE41EC190BFDF727F8394941F864
:1035E00025006400681C05B2192DBEDB9FED368BEB
:1035F0000124002518E02046FCF7F9FF41EC190BE7
:10360000601CFCF7F4FF41EC1B0B53EC182BFCF790
:10361000FFFE41EC1A0B53EC192BFCF76BFF41EC4E
:10362000180BA400681C05B2192DE4DBB0EE480AA3
:10363000F0EE680A0BF0D8FBB0EE409AF0EE609A1C
:1036400053EC192B9FED200B51EC100BFCF752FFA4
:1036500041EC180B0D480068FCF7DAFF41EC1B0B3E
:1036600053EC182BFCF7D4FE41EC1A0B9FED130B17
:1036700053EC102BFCF725FE41EC190BFCF7D5FFA2
:1036800013490860BDEC0E8B70BD00007401002072
:10369000880100208C01002090010020780100208A
:1036A00084010020DB0F49407C010020DB0FC94072
:1036B0008001002000000060FB21F93F00000000B5
:1036C0000000E03FC4670020000000000000F03F61
:1036D0007001002010B54FF4A06002F047FF10BD4C
:1036E00070B504460D46022C23D125488068008819
:1036F00040F40070224989680880224800F0B0FB3D
:1037000021482049C969086003201E4948700020EB
:1037100088700120C8701D4848601D4888600120DD
:1037200008730020086148610A208861084600F09B
:103730002DFA012C23D112484068008840F4007013
:103740000F4949680880134800F08AFB0E48114968
:10375000C969086003200F49487000208870012063
:10376000C8700D4848600D4888600120087300202B
:10377000086148610A208861084600F007FA70BDB8
:103780000C030020EC020020801A06006C6500206B
:103790007C650020CC020020C4660020D466002096
:1037A00010B50446A07801284FD160684068002811
:1037B0004BD1207B012802D0207B062845D14FF237
:1037C000FF0021784D4A52F821108882E0780128C4
:1037D0003AD12078114651F82000808820F40070FA
:1037E000217852F8211088802078114651F8200065
:1037F000808820F48060217852F82110888003208E
:10380000A06100BF20783D4951F82000008B0121C4
:1038100021EA500030B9A069012803D0A069401CFA
:103820000028EFD1A069012802D0A069401C18B976
:10383000204600F08DFB10BD4FF0FF30A06101204D
:103840002073204600F070FB55E020782B4951F89A
:103850002000808A00F470602061102020734FF2F5
:10386000FF002178254A52F821108882206900F44F
:103870008070B0B12078114651F82000008840F4E3
:103880000040217852F8211008802078114651F824
:103890002000008820F40040217852F82110088090
:1038A00000BF206900F40070B8B12078134951F8C6
:1038B0002000008840F400402178104A52F821107E
:1038C00008802078114651F82000008820F400403C
:1038D000217852F82110088000BF206900F40060B0
:1038E00000B100BF206900F4806000B100BF216911
:1038F0002078FFF7F5FE00209DE700000C03002074
:1039000038B504460020009020781A4951F820006C
:10391000808A00F0DF000090A07848BBBDF800006E
:1039200000F0010018B1204602F0C6F938BDBDF81C
:10393000000000F0020018B1204601F04DFFF5E74D
:10394000BDF8000000F0800030B1207B062803D1D4
:10395000204602F0DBF9E9E7BDF8000000F0400086
:1039600030B1207B0A2803D1204602F011F8DDE7B0
:103970000020DBE70C03002010B50246D0780128B8
:103980000DD11078084B53F82000808840F48060F7
:103990001378054C54F823309880002010BD102077
:1039A00010730120FAE700000C03002010B5044654
:1039B000094951F82400012108F068FA064951F834
:1039C0002400002108F062FA034951F82400002184
:1039D00008F04CFA10BD0000FC62010810B5044666
:1039E000094951F82400012108F050FA064951F81C
:1039F0002400002108F04AFA034951F8240001216B
:103A000008F034FA10BD0000FC6201081CB5044641
:103A100002208DF8050000208DF804000A4830F8D7
:103A200014000090094951F82400694601F09FFDF7
:103A3000074830F814000090064951F82400694600
:103A400001F095FD1CBD0000206301081803002053
:103A50003A630108240300201CB50446204951F8AC
:103A60002410204A52F8242041EA0200012108F0E3
:103A7000EDF91D4B13F824201C4B33F814101C4B8C
:103A800053F8240001F0BBFD174B13F82420194B09
:103A900033F81410184B53F8240001F0B0FD022045
:103AA0008DF805008DF8040001208DF80600002037
:103AB0008DF80700114830F8140000900C4951F8B7
:103AC0002400694601F053FD0D4830F814000090C1
:103AD000094951F82400694601F049FD1CBD000068
:103AE0002863010840630108146301083463010876
:103AF000180300204C630108240300202063010800
:103B00003A630108F8B504460D4616461F46FFF70E
:103B1000E1FD01208DF803001548005D8DF80000DF
:103B20001448005D8DF801001348005D8DF8020017
:103B3000684602F0DFFC05F48000C0B90F48005D64
:103B40008DF800000E48005D8DF801000D48005D05
:103B50008DF80200684602F0CDFC0B4850F82400B6
:103B6000808840F48070084951F824108880F8BD9E
:103B700072630108786301087B63010875630108BB
:103B80007E630108816301080C03002070B50446C0
:103B9000207B012805D0207B102802D0207B002824
:103BA0007ED1E078022803D110202073012070BD5F
:103BB0002078424951F82000008820F00100217847
:103BC0003E4A52F8211008802078FFF71FFF207826
:103BD000FFF7ECFE2078FFF701FF2078FFF73CFFAE
:103BE0002078364951F82000008840F00100217803
:103BF000324A52F8211008802278304B53F82200C4
:103C0000E16901F075FD606900F4801060B1207811
:103C10002A4951F82000008840F040002178274AC6
:103C200052F82110088000BF207D00F0010028B369
:103C30002078224951F82000808940F00100217845
:103C40001E4A52F8211088812078114651F8200030
:103C500080894FF601710840217852F8211088813F
:103C60002078114651F820008089217D01F0FE0165
:103C70000843217852F82110888100BF606900F064
:103C8000804060B120780D4951F82000008820F470
:103C900080602178094A52F82110088000BF00E0B6
:103CA0000AE0E378627820786169FFF72BFF012052
:103CB000207300BF00207AE7012078E70C03002082
:103CC00038B504464FF6FF7000900220207320782C
:103CD000584951F82000808820F480702178554A96
:103CE00052F8211088802078114651F82000008871
:103CF00020F00100217852F8211008802078114628
:103D000051F82000008840F00100217852F821107D
:103D100008802078114651F82000008840F4807017
:103D2000217852F8211008801F20A06100BF207860
:103D3000404951F82000808A00F0010030B9A069A4
:103D4000012803D0A069401C0028F0D1A0690128F7
:103D500002D0A069401C18B9204600F0F9F838BD1F
:103D60004FF0FF30A0616068007A00F0FE0021781B
:103D7000304A52F82110088200BF21782D4A52F8AB
:103D80002110898A01F0020121B90098411E009199
:103D90000028F2D1009808B90120E0E74FF6FF3083
:103DA0002178244A52F8211088822078114651F84F
:103DB0002000008840F40070217852F8211008801B
:103DC00000BF20781B4951F82000008B00F0020052
:103DD0000028F6D1207851F82000008820F001005A
:103DE0002178144A52F8211008802078114651F8A1
:103DF0002000008840F00100217852F8211008804E
:103E00002078114651F82000008840F48060217825
:103E100052F8211008802078114651F8200080883F
:103E200040F48070217852F821108880012020739E
:103E3000002094E70C03002010B5044620780228E7
:103E400002D10548FEF7F9FB2078012802D103488A
:103E5000FEF7F3FB10BD0000E46500203C67002086
:103E600001461048104A1060002090804BF6FF7009
:103E7000D080002010814FF480605081000190813B
:103E800003204870002088700220C870002048601D
:103E90008860087308614861401E88611046C861E7
:103EA00000207047A0860100E88B002010B5002498
:103EB00000BF33E01B4850F8240070B3194850F895
:103EC00024008069D0B94FF0FF30164951F8241012
:103ED00088611020134951F824100873114850F8D4
:103EE00024000069C8B9FF200E4951F82410086168
:103EF0000C4951F8240000F039F80EE0094850F858
:103F000024008069401C40B1064850F824008069B4
:103F1000401E044951F824108861641C032CC9D345
:103F200010BD0000C002002010B504462078022811
:103F300002D10548FEF781FB2078012802D1034811
:103F4000FEF77BFB10BD0000BC650020146700205D
:103F500010B504464FF0FF30A06110202073FF2001
:103F60002061204600F002F810BD000010B50446A4
:103F70002078022823D126488068008840F4007009
:103F80002349896808802348FFF76AFF22482149AE
:103F9000C969086003201F4948700020887001200B
:103FA000C8701E4848601E488860012008730020C1
:103FB000086148610A2088610846FFF7E7FD20781C
:103FC000012823D112484068008840F4007010494D
:103FD000496808801348FFF743FF0F481149C96932
:103FE000086003200F494870002088700120C870C5
:103FF0000D4848600D488860012008730020086162
:1040000048610A2088610846FFF7C0FD002010BD06
:104010000C030020EC020020801A06006C650020D2
:104020007C650020CC020020C4660020D4660020FD
:1040300010B500F06FFA00F061FA10BD2DE9F04103
:1040400004464FF00008102C6BD2DFE804F0080E95
:104050000F1014293E090A0B0C11120D135300BF47
:1040600000BF00BF00BF00BF89E000BF00BF00BFAE
:1040700000BF00BF83E000BF00BFFCF7C9F8804667
:1040800000BF00BF3F48006820F480303D49086011
:1040900000BF00BF4046FCF7BFF800BF00BF6EE0A6
:1040A00000BF00BFFCF7B4F8804600BF00BF354832
:1040B000006820F400303349086000BF00BF40466C
:1040C000FCF7AAF800BF00BF59E000BF00BFFCF733
:1040D0009FF8804600BF00BF2A48006820F4802077
:1040E0002849086000BF00BF4046FCF795F800BFB4
:1040F00000BF44E000BF00BFFCF78AF8804600BF65
:1041000000BF4FF0E020006920F001004FF0E021F7
:10411000086100BF00BF4046FCF77EF800BF00BF4B
:104120002DE04FF0E0204068401C102101EB4010D2
:10413000C6B2B44222DAA4F11000C11700EBD1617B
:10414000C1F34715C11700EBD1614911A0EB411133
:10415000CFB200BF00BFFCF75BF8804600BF00BFD6
:104160000120B840A90001F1E021C1F8800100BFA1
:1041700000BF4046FCF750F800BF00BF00BF00BFC3
:10418000BDE8F08124ED00E02DE9F04104464FF058
:104190000008102C6BD2DFE804F0080E0F10142971
:1041A0003E090A0B0C11120D135300BF00BF00BFD4
:1041B00000BF00BF89E000BF00BF00BF00BF00BF5D
:1041C00083E000BF00BFFCF723F8804600BF00BFBC
:1041D0003F48006840F480303D49086000BF00BFA0
:1041E0004046FCF719F800BF00BF6EE000BF00BFFB
:1041F000FCF70EF8804600BF00BF3548006840F469
:1042000000303349086000BF00BF4046FCF704F8A7
:1042100000BF00BF59E000BF00BFFBF7F9FF8046B9
:1042200000BF00BF2A48006840F480202849086089
:1042300000BF00BF4046FBF7EFFF00BF00BF44E0F8
:1042400000BF00BFFBF7E4FF804600BF00BF4FF098
:10425000E020006940F001004FF0E021086100BF5C
:1042600000BF4046FBF7D8FF00BF00BF2DE04FF076
:10427000E0204068401C102101EB4010C7B2BC4256
:1042800022DAA4F11000C11700EBD161C1F3471588
:10429000C11700EBD1614911A0EB4111CEB200BFB3
:1042A00000BFFBF7B5FF804600BF00BF0120B04054
:1042B000A90001F1E021C1F8000100BF00BF4046A4
:1042C000FBF7AAFF00BF00BF00BF00BFBDE8F08141
:1042D00024ED00E02DE9F04706460D464FF0000AB8
:1042E000102E7CD2DFE806F0080E0F1011263C09D4
:1042F0000A0B0C52690D819800BF00BF00BF00BFC0
:1043000000BFDDE000BF00BFDAE000BF00BFFBF789
:104310007FFF824600BF00BF6B48046824F0FF04A3
:104320002C43046000BF00BF5046FBF775FF00BF81
:1043300000BFC5E000BF00BFFBF76AFF824600BFB9
:1043400000BF6148046824F47F4444EA0524046003
:1043500000BF00BF5046FBF75FFF00BF00BFAFE0EC
:1043600000BF00BFFBF754FF824600BF00BF5648A6
:10437000046824F47F0444EA0544046000BF00BFDD
:104380005046FBF749FF00BF00BF99E000BF00BFE8
:10439000FBF73EFF824600BF00BF4B48001D04688C
:1043A00024F07F4444EA0564046000BF00BF504627
:1043B000FBF732FF00BF00BF82E000BF00BFFBF78A
:1043C00027FF824600BF00BF3F480830046824F042
:1043D000FF042C43046000BF00BF504600E032E001
:1043E000FBF71AFF00BF00BF6AE000BF00BFFBF78A
:1043F0000FFF824600BF00BF33480830046824F432
:104400007F0444EA0544046000BF00BF5046FBF748
:1044100003FF00BF00BF53E000BF00BFFBF7F8FE83
:10442000824600BF00BF28480830046824F07F445B
:1044300044EA0564046000BF00BF5046FBF7ECFE91
:1044400000BF00BF3CE04FF0E0204068401C10215E
:1044500001EB401000F0FF094E4530DAA6F11000E4
:10446000C11700EB9171C1F38707C11700EB917180
:104470008910A0EB810101F0FF0800BF00BFFBF72E
:10448000C7FE824600BF00BFB80000F1E020D0F8B0
:1044900000444FEAC801FF20884084434FEAC80126
:1044A00005FA01F00443B80000F1E020C0F8004430
:1044B00000BF00BF5046FBF7AFFE00BF00BF00BF0C
:1044C00000BFBDE8F087000018ED00E010B5002443
:1044D00000BF00BFFBF79CFE044600BF00BF1021D9
:1044E000054801F021FE00BF00BF2046FBF794FE07
:1044F00000BF00BF10BD00005068002010B5FFF7DE
:10450000E5FF10BD00BFFEE710B500F02DF8044632
:10451000204610BD10B500200249086000F00AF8DE
:1045200010BD0000B801002001490860704700007C
:10453000B801002010B5FDF763FC04460848006888
:1045400040F080700649086000200649486008462F
:10455000006840F0010008602046FFF7E5FF10BD4D
:10456000FCED00E0001000E00149486870470000E1
:10457000001000E011B52DED060B2DED028B8DB076
:1045800004465A4A07CA0AAB07C3DDED110A9DED7E
:10459000141A70EEC10AB0EE600A09F055FE8DEDF6
:1045A000070ADDED100A9DED131A70EEC10AB0EE98
:1045B000600A09F049FE8DED080ADDED0F0A9DED58
:1045C000121A70EEC10AB0EE600A09F03DFE8DEDE0
:1045D000090A9DED0A0ADDED070A20EE200A8DED9D
:1045E000040A9DED0B0ADDED080A20EE200A8DED90
:1045F000050A9DED0C0ADDED090A20EE200A8DED7D
:10460000060ADDED130AB0EE600A0BF01BFEDDEDCD
:10461000040A9DED061A41EE400ACDED010ADDEDDA
:10462000140AB0EE600A0BF079FDDDED050A20EE0C
:10463000208ADDED130AB0EE600A0BF06FFDDDEDB0
:10464000060A60EE208ADDED140AB0EE600A0BF077
:10465000F9FD08EE808A8DED028ADDED140AB0EED8
:10466000600A0BF0EFFDDDED050AF1EE600A20EEC9
:10467000208ADDED130AB0EE600A0BF04FFDDDED90
:10468000060A60EE208ADDED140AB0EE600A0BF037
:1046900045FD08EE808A8DED038ADDED010AB0EE5E
:1046A000600A9FED131ADFED130A00F045FC84ED5C
:1046B000000ADDED020AB0EE600A9FED0D1ADFED93
:1046C0000D0A00F039FC84ED010ADDED030AB0EEBD
:1046D000600A9FED071ADFED070A00F02DFC84ED5C
:1046E000020A0DB0BDEC028B07B010BDB058010836
:1046F000C3F5C840C3F5C8C00FB42DED080B30B5E5
:104700002DED028B89B00446B0EE438A209DBF4A4E
:1047100007CACDE907120690BC4A0C32D2E9001054
:104720009268CDE904020391B84A1832D2E9001028
:104730009268CDE9010200919DED0E1ADDED111A8E
:1047400031EE611AB0EE410AB14890ED001AF0EE78
:10475000410AF0EE481A9FEDAF1A00F03FFDAC4859
:1047600080ED000A9DED0F1ADDED121A31EE611A8F
:10477000B0EE410A90ED011AF0EE410AF0EE481A4F
:104780009FEDA41A00F02AFDA14880ED010A9DEDDD
:10479000101ADDED131A31EE611AB0EE410A90EDF8
:1047A000021AF0EE410AF0EE481A9FED9A1A00F054
:1047B00015FD974880ED020A90ED000A9648D0ED6D
:1047C000000A30EE600AC0EE080AF0EE608A9348F4
:1047D00090ED000AF0EE400AF0EE481A9FED901AB4
:1047E000B0EE680A00F0FAFC8C4880ED000A8848B8
:1047F00090ED010A8848D0ED010A30EE600AC0EE63
:10480000080AF0EE608A854890ED010AF0EE400A51
:10481000F0EE481A9FED821AB0EE680A00F0DEFC56
:104820007E4880ED010A7A4890ED020A7A48D0ED80
:10483000020A30EE600AC0EE080AF0EE608A77489D
:1048400090ED020AF0EE400AF0EE481A9FED741A5D
:10485000B0EE680A00F0C2FC704880ED020A6C48B5
:1048600090ED000A6C4880ED000A694890ED010A5D
:10487000694880ED010A664890ED020A664880EDBD
:10488000020A6848D0ED000A614890ED001A48EE2F
:10489000010AB0EE600A9FED641ADFED640A00F0D1
:1048A0004BFB604880ED000AD0ED010A584890EDBE
:1048B000011A48EE010AB0EE600A9FED5B1ADFEDC7
:1048C0005B0A00F039FB574880ED010AD0ED020A7F
:1048D0004F4890ED021A48EE010AB0EE600A9FEDD3
:1048E000521ADFED520A00F027FB4E4880ED020A13
:1048F000012D54D19DED060A4548D0ED000A20EE69
:10490000200ADDED030A474890ED001A00EE810A07
:10491000DDED000A414890ED001A00EE810ADDED60
:104920001A0A20EE200A424880ED000A9DED070A8F
:104930003748D0ED010A20EE200ADDED040A39489F
:1049400090ED011A00EE810ADDED010A334890ED89
:10495000011A00EE810ADDED1B0A20EE200A344820
:1049600080ED010A9DED080A2948D0ED020A20EEEB
:10497000200ADDED050A2B4890ED021A00EE810AAF
:10498000DDED020A254890ED021A00EE810ADDED08
:104990001C0A20EE200A264880ED020A23E09FED43
:1049A000250A234880ED020A80ED010A80ED000A05
:1049B0009FED200A1B4880ED020A80ED010A80ED80
:1049C000000A9FED1C0A154880ED020A80ED010ADD
:1049D00080ED000A9FED170A0D4880ED020A80ED78
:1049E000010A80ED000A124890ED000A84ED010AE8
:1049F00090ED010A84ED020A90ED020A84ED030AAB
:104A000009B0BDEC028B30BC5DF834FBBC5801082A
:104A100094670020DD7E3C4388670020A06700206B
:104A2000DD7EBC42AC6700200000C8420000C8C266
:104A3000B86700200000000010B52DED028BB0EE2D
:104A4000408A0446094890ED060ADFED090A20EE87
:104A5000200AB0EE401ADFED070AB0EE480A00F077
:104A60006BFA84ED000ABDEC028B10BD94010020AE
:104A7000CDCC4C3F000000002DED048BA6B09FED87
:104A8000FE0AB0EE408A0020259000240025FB4A53
:104A9000D2E900109268CDE914021391002007902A
:104AA0000890099004900590069001900290039060
:104AB000012240F22551F24809F0E6FADBE125A88F
:104AC00000F0D2FDB0EE408AEE4890ED000A8DED88
:104AD0000A0A90ED010A8DED0B0A90ED020A8DEDA8
:104AE0000C0A3221E848FDF7B7FD0128E6D115226E
:104AF000E64916A8FBF7D3FB9DF859008DF8900006
:104B00009DF85A008DF891009DF85B008DF88C009F
:104B10009DF85C008DF88D009DF85D008DF8880093
:104B20009DF85E008DF889009DF85F008DF8840087
:104B30009DF860008DF885009DF861008DF880007B
:104B40009DF862008DF881009DF863008DF87C006F
:104B50009DF864008DF87D009DF865008DF8780063
:104B60009DF866008DF879009DF867008DF8740057
:104B70009DF868008DF875009DF869008DF870004B
:104B80009DF86A008DF8710012210DF159000BF0AB
:104B9000EDFB9DF86B1088427ED10AAA13A910A8DC
:104BA00000F05AFCBDF9900000EE100AB8EEC00A01
:104BB000DFEDB70A80EE201A8DED0D1ABDF98C00DD
:104BC00000EE100AB8EEC00ADFEDB10A80EE201A3E
:104BD0008DED0E1ABDF9880000EE100AB8EEC00A7D
:104BE000DFEDAB0A80EE201A8DED0F1A9DED0D1A48
:104BF000DDED101A31EE611AB0EE410A9DED071A93
:104C0000F0EE410AF0EE481A9FEDA21A00F0E6FA23
:104C10008DED070A9DED0E1ADDED111A31EE611AC8
:104C2000B0EE410A9DED081AF0EE410AF0EE481A86
:104C30009FED981A00F0D2FA8DED080A9DED0F1A3B
:104C4000DDED121A31EE611AB0EE410A9DED091A3E
:104C5000F0EE410AF0EE481A9FED8E1A00F0BEFA0F
:104C60008DED090ABDF9840000EE100AB8EEC00A05
:104C7000DFED870A80EE201AB0EE419A864890ED6B
:104C8000000AF0EE400AF0EE481A9FED821AB0EEEC
:104C9000490A00F0A3FA00E0DAE0DFED800A30EE26
:104CA000200A7D4880ED000ABDF9800000EE100A60
:104CB000B8EEC00ADFED760A80EE201AB0EE419A17
:104CC000754890ED010AF0EE400AF0EE481A9FEDAB
:104CD000711AB0EE490A00F081FA6F4880ED010ABE
:104CE000BDF97C0000EE100AB8EEC00ADFED680ADC
:104CF00080EE201AB0EE419A674890ED020AF0EE7D
:104D0000400AF0EE481A9FED631AB0EE490A00F02F
:104D100065FA614880ED020A9DED070ADDED010AA2
:104D200030EE600AC0EE080ACDED040A9DED080AD7
:104D3000DDED020A30EE600AC0EE080ACDED050A8C
:104D40009DED090ADDED030A30EE600AC0EE080AA7
:104D5000CDED060A9DED070A8DED010A9DED080ACD
:104D60008DED020A9DED090A8DED030A9DED070AFE
:104D70004B4880ED000A9DED080A80ED010A9DED8B
:104D8000090A80ED020A9DED040A464880ED000AFA
:104D90009DED050A80ED010A9DED060A80ED020AEF
:104DA000BDF9780000EE100AB8EEC00ADFED380A4F
:104DB00080EE201AB0EE419A3B4890ED000AF0EEEA
:104DC000400AF0EE481A9FED391AB0EE490A00F099
:104DD00005FA354880ED000ABDF9740000EE100AAE
:104DE000B8EEC00ADFED2A0A80EE201AB0EE419A32
:104DF0002D4890ED010AF0EE400AF0EE481A9FEDC2
:104E00002B1AB0EE490A00F0E9F9274880ED010AB3
:104E1000BDF9700000EE100AB8EEC00ADFED1C0A02
:104E200080EE201AB0EE419A1F4890ED020AF0EE93
:104E3000400AF0EE481A9FED1D1AB0EE490A00F044
:104E4000CDF9194880ED020A01201949087000E0E7
:104E5000641C6D1C00EE104AB8EEC00ADFED150AA6
:104E600060EE200A00EE105AB8EEC00A80EE801AFA
:104E7000F0EE418A00BF22E600000000D0050108E4
:104E800000440040000400205C660020AC66002066
:104E900000007A44D2537B426C040020DB0FC93FF0
:104EA000540400206004002078040020E4CB164164
:104EB0001D0000200000C84200B58BB00AA80721E1
:104EC00000220592CDE90621089010464FF40071AA
:104ED00033220A4BCDE90132CDE90310082000232B
:104EE000074A08A100900A4802F00EFDBDF828000C
:104EF00010B908A0FEF782F90BB000BDB048002041
:104F0000794A0008436F6D6D205461736B00000097
:104F1000B05000200A0D43726561746520436F6DC7
:104F20006D756E69636174696F6E205461736B2E69
:104F30002E2E0A0D00000000B4EEC10AF1EE10FAA8
:104F400002DBB0EE410A06E0B4EEE00AF1EE10FA40
:104F500001D8B0EE600A70470346934201DB104669
:104F600070478B4201DC0846FAE71846F8E7000074
:104F70002DED028B9AB09FED6C0AB0EE408AFFF7E0
:104F8000C3FA1990CEE000216848FDF765FB19A827
:104F900000F06AFBB0EE408A654890ED000A8DEDA6
:104FA000160A90ED010A8DED170A90ED020A8DEDBB
:104FB000180A0AA95F4809F026F95F4890ED000A2F
:104FC0005E48D0ED000A30EE200A8DED0D0A5A48F9
:104FD00090ED010A5948D0ED010A30EE200A8DED1E
:104FE0000E0A554890ED020A5448D0ED020A30EE00
:104FF000200A8DED0F0A52480078012812D151483D
:1050000090ED060ADFED500A20EE200AB0EE401ABD
:10501000DFED450A4D4890ED000AFFF78DFFF0EEF9
:10502000408A17E04748D0ED060ADFED471A60EEE8
:10503000A10AB0EE601AD0ED060A4548D0ED001A7C
:1050400060EEA10AB0EE600ADFED370AFFF774FFE9
:10505000F0EE408A3F480078002860D13E48007852
:1050600001282FD107A8DDED182A9DED172ADDEDC7
:10507000161A9DED0F1ADDED0E0A9DED0D0AFFF7D4
:1050800079FA012018222F490C3106906846FBF767
:1050900006F9B0EE483A2B480EC812A8DDED0C2AEE
:1050A0009DED0B2ADDED0A1A9DED091ADDED080ACA
:1050B0009DED070AFFF720FB12A8B0EE680AFFF784
:1050C000BBFC1FE0002018221E490C3106906846E8
:1050D000FBF7E5F8B0EE483A1A480EC812A8DDED25
:1050E0000C2A9DED0B2ADDED0A1A9DED091ADDED66
:1050F000080A9DED070AFFF7FFFA12A8B0EE680A4A
:10510000FFF79AFC1C220F4908316846FBF7C7F8E5
:105110000C4810A90CC812A801F0D4F802E010A89D
:1051200001F0C0F82FE70000000000005803002045
:105130000004002018040020D00300208404002074
:105140000500002094010020CDCC4C3F2000002021
:1051500000000020070000200400002000B58BB0F4
:105160000AA8072100220592CDE906210890052012
:105170004FF4007133220B4BCDE90310CDE901321E
:1051800000900023084A09A10C4802F0BDFBBDF8BD
:10519000280018B90AA0FEF731F801E000BFFEE7C9
:1051A0000BB000BD90290020714F0008436F6E7452
:1051B000726F6C205461736B00000000903100200E
:1051C0000A0D43726561746520436F6E74726F6C73
:1051D000205461736B2E2E2E0A0D000000B5B0EE28
:1051E000402AF0EE602AB0EE413AF0EE613A23EE4A
:1051F000230AF0EE401A9FED091ADFED090AB0EE1E
:10520000610AFFF799FEF0EE401AB7EE000A30EEA1
:10521000610A20EE220A01EE820A00BDFEFF7F3FF6
:10522000000000001FB5684606F060FE09A0FDF70B
:10523000E5FF0DA00099FDF7E1FF12A00199FDF730
:10524000DDFF17A00299FDF7D9FF1CA00399FDF718
:10525000D5FF1FBD0A0D53797374656D20496E66C5
:105260006F3A200A0D000000535953434C4B5F46E0
:1052700072657175656E6379203D20256C64487A8E
:10528000200D0A0048434C4B5F4672657175656E90
:1052900063792020203D20256C64487A200D0A0087
:1052A00050434C4B315F4672657175656E63792072
:1052B000203D20256C64487A200D0A0050434C4B59
:1052C000325F4672657175656E637920203D2025D9
:1052D0006C64487A200D0A000EB5684600F0D3FFD2
:1052E00040F6B830FDF7D4F9684600F0DBFF40F631
:1052F000B830FDF7CDF901200549087002A905482D
:1053000002F03CFC02E06420FDF7C2F9FBE700007C
:105310005C0000202043002000B58BB00AA80721C4
:1053200000220592CDE90621089010464FF4007145
:1053300033220A4BCDE90132CDE9031004200023CA
:10534000074A08A100900C4802F0DEFABDF82800D8
:1053500010B90AA0FDF752FF0BB000BD203B0020A2
:10536000D952000845534343616C696272617465A8
:105370005461736B00000000204300200A0D43724B
:10538000656174652045534343616C696272617461
:10539000655461736B205461736B2E2E2E0A0D00C1
:1053A0000149086070470000143C0140014600209C
:1053B000034A12680A400AB1012000E00020704749
:1053C000143C0140002123498279002A3AD00A4640
:1053D000126803689A430B461A600A1D1268036834
:1053E0009A430B1D1A60027911440A6803681A4334
:1053F0000A60184A0832126803689A43154B08334A
:105400001A601A1D126803689A43124B0C331A6013
:105410004279102A0ED11A1F126803681A430D4BE5
:1054200008331A601A1D126803681A43094B0C33BB
:105430001A600DE00749427911440A6803681A436B
:105440000A6005E0027911440A6803689A430A6019
:1054500070470000003C014070B52DED068B84B014
:1054600005460E46144601A9304608F0CCFED4EDA0
:10547000000AB0EE600A0AF0E5FEB0EE408AD4ED14
:10548000000AB0EE600A0AF049FEF0EE408AD4ED60
:10549000010AB0EE600A0AF0D5FEB0EE409AD4EDF3
:1054A000010AB0EE600A0AF039FEF0EE40AAD4ED2F
:1054B000020AB0EE600A0AF0C5FEF0EE409AD4EDA2
:1054C000020AB0EE600A0AF029FEB0EE40AA9DED95
:1054D000010A68EEAA0A20EE200A68EE890A60EE48
:1054E000A90A48EE4A0A9DED021A01EE200A68EE6A
:1054F000890A60EE8A0A48EE290A9DED031A01EE38
:10550000200A85ED000A9DED010A68EE2A0A20EEC8
:10551000200A68EE090A60EEA90A48EE8A0A9DEDA3
:10552000021A01EE200A68EE090A60EE8A0A48EEC5
:10553000E90A9DED031A01EE200A85ED010A9DEDB1
:10554000020A6AEEA90A20EE200ADDED010AB1EE98
:10555000491A00EE810ADDED030A2AEE8A1A00EEEE
:10556000810A85ED020A04B0BDEC068B70BDF0B572
:105570000A4600210023002400BF3DE0012505FA72
:1055800001F3156805EA03049C4234D105684F0015
:105590000326BE40B543056015794E00B540066848
:1055A000354305601579012D02D01579022D16D1EC
:1055B00085684F000326BE40B543856055794E008F
:1055C000B540866835438560456801268E40B54301
:1055D0004560456896798E40B6B235434560C568EA
:1055E0004F000326BE40B543C560D5794E00B54097
:1055F000C6683543C560491C1029BFD3F0BDF0B55E
:10560000002300244D07ED0E02FA05F3CE1000F141
:10561000200555F826504E07F70E0F26BE40B5431D
:10562000CF1000F1200646F82750CE1000F12005DB
:1056300055F8265045EA0304CE1000F1200545F840
:105640002640F0BD0246002013690B400BB101203B
:1056500000E0002070470146486980B270474183EE
:1056600070470183704700002DE9F0412DED028B5A
:1056700005460024FEF748FF04462868A04213D9D7
:1056800000260120B4462968761A60EB0C00321916
:1056900040F100011046FAF79CFF00EE100ADFED22
:1056A0000B0A80EE208A09E02868201A00EE100A12
:1056B000B8EE400ADFED050A80EE208A2C60B0EEDD
:1056C000480ABDEC028BBDE8F0810000A037204DF8
:1056D00010B50248FEF764F8002010BDEC0200206F
:1056E00010B50248FEF70CF910BD0000EC020020D6
:1056F0002DE9FF4704460D460026B1460427DFF892
:10570000CC80A6884FF6C0700640684606F0EEFBD7
:10571000DDF808802E48B8FBF0F01FFA80F946EA61
:105720000906A68020884FF6FE71084020800026DA
:105730002849286888420CD828684000B8FBF0F057
:1057400087B2042F00DA04273E4309F101002084C8
:1057500027E0E8884BF6FF71884206D1286800EB05
:105760004000B8FBF0F087B209E0286800EBC00108
:1057700001EB0010B8FBF0F087B247F48047C7F3A5
:105780000B0008B947F0010747F4004006434FF407
:10579000967009FB00F04FF47A7190FBF1F0401C19
:1057A0002084A683208840F00100208026884FF6C0
:1057B000F5300640A8886989084306432680A889F1
:1057C000298908432081BDE8FF87000000127A0084
:1057D00040420F00A086010010B50446E078022880
:1057E00003D04FF0FF30A06112E0207B062804D1E7
:1057F00060684068401CA0610AE0207B0A2804D150
:10580000A0684068401CA06102E04FF0FF30A0613A
:10581000207B0A281DD1E07801281AD1A0684068B1
:10582000B8B92078594951F82000008840F4007038
:105830002178564A52F8211008802078114651F8F4
:105840002000808A207851F82000008B01202073EE
:1058500099E0207B0A2806D1E078012803D10221B3
:105860002046FEF789F8207B0A2823D1A0684068EB
:1058700001281FD12078454951F82000008820F4E4
:1058800080602178414A52F8211008802078114622
:1058900051F82000808A207851F82000008B207871
:1058A00051F82000008840F40070217852F821104F
:1058B000088033E0E078012827D1207B0A2824D112
:1058C000A0684068022820D12078304951F8200093
:1058D000008820F4806021782C4A52F8211008803A
:1058E0002078114651F82000008840F400602178AB
:1058F00052F8211008802078114651F82000808A43
:10590000207851F82000008B08E020781F4951F8DA
:105910002000808A207851F82000008B606900F414
:10592000803080BB207B062829D1606900F40030DC
:1059300028BB6068007B2178144A52F82110088245
:105940000320A06100BF2078104951F82000808A10
:1059500000F0800030B9A069012803D0A069401C84
:105960000028F0D1A069012802D0A069401C18B914
:105970002046FEF7EDFA10BD4FF0FF30A061032185
:105980002046FDF7F9FF0020F5E700000C0300209A
:1059900010B50446E07801287ED1A068406803284D
:1059A0007BD8A068406801280DD12078C14951F802
:1059B0002000008AA16809680870A0684068401E3D
:1059C000A168486000BFA0684068022856D12078CE
:1059D000B84951F82000808820F480602178B54AC9
:1059E00052F8211088800520A06100BF2078B149BD
:1059F00051F82000808A00F0040030B9A069012825
:105A000003D0A069401C0028F0D1A069012802D071
:105A1000A069401C18B92046FEF79AFA10BD4FF055
:105A2000FF30A0612078A34951F82000008840F49D
:105A3000007021789F4A52F8211008802078114682
:105A400051F82000008AA16809680870A068006801
:105A5000401CA1680860A0684068401EA1684860BA
:105A60002078114651F82000008AA1680968087062
:105A7000A0684068401EA168486000BFA0684068F8
:105A800003287DD120788B4951F82000808820F4AC
:105A900080602178874A01E00AE18CE052F8211009
:105AA00088800520A06100BF2078824951F820003D
:105AB000808A00F0040030B9A069012803D0A069F1
:105AC000401C0028F0D1A069012802D0A069401C28
:105AD00018B92046FEF73CFAA0E74FF0FF30A0616E
